:020000040000FA
:060000000A128A11F32F21
:1000080000307005F80000307105F9008030720585
:10001800FA007F307305FB007B087A0479047804C2
:10002800031D1728182820280030F3000030F2009C
:100038000030F1000030F00000307405F8000030A6
:100048007505F90080307605FA007F307705FB00EA
:100058007B087A0479047804031D332834283C2863
:100068000030F7000030F6000030F5000030F400F2
:1000780077087306031D4A2876087206031D4A2866
:1000880075087106031D4A287408700603194D285F
:100098004E28502803105128031408008316031310
:1000A800C100A130AB002B08B400DC2F2530480676
:1000B80003195F2860286C284808AB0041088400B1
:1000C8002B08831380000130AB002B08C107DC2FFD
:1000D800B501B601200884000A128A150A200A12FE
:1000E8008A112E3A031D79287A28BF28361701303D
:1000F800AB002B08A007C601C701AE280A30F000E4
:100108000030F100831603134708F3004608F20095
:100118000A168A15D4210A128A1171088316031344
:10012800C7007008C600200884000A128A150A2031
:100138000A128A11D03EAB00FF3003180030AC0021
:100148002B08C6070318C70A2C08C7070130AB00DD
:100158002B08A007200884000A128A150A200A1210
:100168008A110A168A154D210A128A110318BD2808
:10017800BE288228C528C601C7013616C5283615E7
:10018800E728013083160313A007FF3020078400F7
:100198000A128A150A200A128A11C800AB00AC019B
:1001A8002C08003A0319D928DC2F2B08003A031928
:1001B800EE2F643A0319E728023A0319C3280F3AC5
:1001C8000319E728DC2F00303505AB00073036056A
:1001D800AC002B082C040319F228F328B42E361E81
:1001E800F628F728FB280630C6000030C700340878
:1001F800840083130008C200840A0008C300840A2C
:100208000008C400840A0008C5000430AB002B08AD
:10021800B4074508F3004408F2004308F100420817
:10022800F0000030F7000030F6000030F500003034
:10023800F4000A168A1529250A128A110318252995
:1002480026294329831603134508F3004408F200BE
:100258004308F1004208F0000A168A1103200A1226
:100268008A11730883160313C5007208C400710845
:10027800C3007008C2000330B5040030B60483160A
:100288000313B701B8014508F3004408F200430816
:10029800F1004208F0000030F7000030F6000030AE
:1002A800F5000030F4000A128A1104200A128A119B
:1002B80003185F296029502A031083160313440D7D
:1002C800450D823EB700FF3003180030B800FF30FC
:1002D800B7070318B80AFF30B8070330F00000303A
:1002E800F1003808F3003708F2000A168A15D421FD
:1002F8000A128A11710883160313B8007008B70030
:100308000A30F7000030F8003808FA003708F9001A
:100318000A168A1544240A128A11780883160313C8
:10032800B8007708B700B81F9A299B29A129FF3080
:10033800B7070318B80AFF30B8073703FF3A0A129D
:100348008A1540210A128A11831203134108831661
:100358000313BC0083120313400883160313BB0066
:10036800831203133F0883160313BA00831203137F
:100378003E0883160313B900450883120313A70028
:1003880083160313440883120313A600831603136A
:10039800430883120313A50083160313420883122C
:1003A8000313A400831603133C0883120313AB0042
:1003B800831603133B0883120313AA00831603133F
:1003C8003A0883120313A90083160313390883120A
:1003D8000313A8000A128A159F240A128A1183128D
:1003E8000313270883160313BC008312031326087C
:1003F80083160313BB008312031325088316031304
:10040800BA0083120313240883160313B9003C08A7
:10041800F3003B08F2003A08F1003908F0003F30D9
:10042800F7008030F6000030F5000030F4000A16BE
:100438008A1529250A128A110318232A242A2D2A03
:10044800FF3083160313B7070318B80AFF30B8073D
:10045800502A831603133C08F3003B08F2003A08BD
:10046800F1003908F0004130F7002030F600003084
:10047800F5000030F4000A168A1529250A128A1197
:10048800031C472A482A502A013083160313B7074A
:100498000318B80A0030B807831603134708803AD0
:1004A800FF0080307F02031D5B2A0D3046020318CF
:1004B8005E2A5F2AA62A8316031346080A168A119B
:1004C8006D230A128A11831203134108D5004008CC
:1004D800D4003F08D3003E08D20083160313450812
:1004E80083120313D90083160313440883120313DA
:1004F800D80083160313430883120313D700831607
:100508000313420883120313D6000A168A117825AA
:100518000A128A1183120313550883160313C500A0
:1005280083120313540883160313C400831203139E
:10053800530883160313C300831203135208831648
:100548000313C200831603133808803AFF00803073
:100558007F02031DB12A0A3037020318B42AB52ACC
:10056800062B831603134508F3004408F2004308DA
:10057800F1004208F0000030F7000030F6000030CB
:10058800F5000030F4000A128A1104200A128A11B8
:100598000318CF2AD02A782B831603134508831211
:1005A8000313D40083160313440883120313D300E0
:1005B80083160313430883120313D200831603130D
:1005C800420883120313D1000A168A15AD240A12B1
:1005D8008A11831203135408530452045104031D4F
:1005E800F62AF72A782B831603133808803AFF0077
:1005F80080307F02031D022B02303702031C052BBB
:10060800062B782B831603133C08F3003B08F200F3
:100618003A08F1003908F0004030F7008930F60058
:100628007030F5005F30F4000A168A1529250A1281
:100638008A110318202B212B2A2BF730831603133A
:10064800B7070318B80AFF30B807322BF8308316FB
:100658000313B7070318B80AFF30B80737080A1298
:100668008A1540210A128A1183120313410883163E
:100678000313BC0083120313400883160313BB0043
:10068800831203133F0883160313BA00831203135C
:100698003E0883160313B9004508F3004408F20026
:1006A8004308F1004208F0003C08F7003B08F60058
:1006B8003A08F5003908F4000A168A1542270A1282
:1006C8008A11730883160313C0007208BF007108EB
:1006D800BE007008BD000030C5000030C400003006
:1006E800C3000030C200FC2B831603134508831295
:1006F8000313D40083160313440883120313D3008F
:1007080083160313430883120313D20083160313BB
:10071800420883120313D1000A168A15AD240A125F
:100728008A1183120313540883160313C00083121B
:100738000313530883160313BF00831203135208CD
:1007480083160313BE008312031351088316031381
:10075800BD004008F3003F08F2003E08F1003D08E4
:10076800F00000300A168A15CB250A128A11730880
:1007780083120313E9007208E8007108E7007008A3
:10078800E60083160313450883120313ED0083164E
:100798000313440883120313EC008316031343085E
:1007A80083120313EB008316031342088312031307
:1007B800EA000A168A15B0210A128A118312031355
:1007C800690883160313C500831203136808831688
:1007D8000313C40083120313670883160313C300AB
:1007E80083120313660883160313C200B701B80106
:1007F800C801C80A4808AB0001300310AB0DFF3E22
:10080800031D012C03102B0D693E84000A128A1562
:100818000A200A128A11AC000A128A150A200A1242
:100828008A11AD000A128A150A200A128A11AE002E
:100838000A128A150A200A128A11AF002F084002EC
:10084800031D302C2E083F02031D302C2D083E02BC
:10085800031D302C2C083D020318332C342C352C66
:100868003F2C0130AB002B08C8070A304806031D8F
:100878003E2C3F2CFE2B03303505AB0000303605EF
:10088800AC002B082C0403194A2C4B2CDD2C2D30E2
:10089800AB00410884002B08831380000130AB00B3
:1008A8002B08C107DD2C4808AB0001300310AB0D45
:1008B800FF3E031D5A2C03102B0D693E84000A12BB
:1008C8008A150A200A128A11F0000A128A150A20CB
:1008D8000A128A11F1000A128A150A200A128A11CC
:1008E800F2000A128A150A200A128A11F300400837
:1008F800F7003F08F6003E08F5003D08F4000A1628
:100908008A15DE230A128A11730883160313BC00A2
:100918007208BB007108BA007008B9000030831271
:100928000313A3000030A2000030A1000A30A00089
:10093800831603133C0883120313A70083160313BB
:100948003B0883120313A600831603133A08831285
:100958000313A50083160313390883120313A40095
:100968000A168A152F230A128A11831203132308E1
:1009780083160313BC008312031322088316031380
:10098800BB0083120313210883160313BA008312D2
:100998000313200883160313B9003908303EAB004F
:1009A800410884002B08831380000130AB002B081A
:1009B800C1070130C802480A031DE32CE42C572C58
:1009C800F82C303083160313AB00410884002B0841
:1009D800831380000130AB002B08C107FF30B70735
:1009E8000318B80AFF30B8073808803AFF0080308B
:1009F8007F02031D012D013037020318042D052D38
:100A0800E52C831603134708803AFF0080307F02E5
:100A1800031D102D09304602031C132D142D1B2D08
:100A2800083083160313AB002B08C800212D83164A
:100A380003134608AB002B08C8004808AB00AC01FC
:100A48002B08C6022C08031CC703C7024808031951
:100A58002E2D2F2D3A2D2E30AB00410884002B0867
:100A6800831380000130AB002B08C10748080A1225
:100A78008A1540210A128A1183120313410883162A
:100A88000313B30083120313400883160313B20041
:100A9800831203133F0883160313B1008312031351
:100AA8003E0883160313B000330883120313AB0008
:100AB80083160313320883120313AA008316031341
:100AC800310883120313A900831603133008831215
:100AD8000313A80083160313450883120313A70002
:100AE80083160313440883120313A6008316031303
:100AF800430883120313A5008316031342088312C5
:100B08000313A4000A128A159F240A128A11831259
:100B180003132708D4002608D3002508D200240888
:100B2800D1000A168A15AD240A128A1183120313FA
:100B3800540883160313C000831203135308831643
:100B48000313BF0083120313520883160313BE0056
:100B580083120313510883160313BD00942E48080B
:100B6800AB0001300310AB0DFF3E031DB62D031083
:100B78002B0D693E84000A128A150A200A128A116E
:100B8800F0000A128A150A200A128A11F1000A12C4
:100B98008A150A200A128A11F2000A128A150A20F6
:100BA8000A128A11F3004008F7003F08F6003E08D1
:100BB800F5003D08F4000A168A15DE230A128A1188
:100BC800730883160313BC007208BB007108BA00CF
:100BD8007008B900003083120313A3000030A2008C
:100BE8000030A1000A30A000831603133C088312CA
:100BF8000313A700831603133B0883120313A600ED
:100C0800831603133A0883120313A50083160313EC
:100C1800390883120313A4000A168A152F230A120F
:100C28008A1183120313230883160313BC0083124B
:100C38000313220883160313BB008312031321082E
:100C480083160313BA0083120313200883160313B1
:100C5800B9003908303EAB00410884002B088313E3
:100C680080000130AB002B08C1074808AB000130F9
:100C78000310AB0DFF3E031D3C2E03102B0D693EE8
:100C880084000A128A150A200A128A118312031391
:100C9800A0000A128A150A200A128A11A1000A1253
:100CA8008A150A200A128A11A2000A128A150A2035
:100CB8000A128A11A3008316031340088312031330
:100CC800A700831603133F0883120313A600831695
:100CD80003133E0883120313A500831603133D086C
:100CE80083120313A4000A168A152F230A128A11E5
:100CF80083120313230883160313C00083120313FC
:100D0800220883160313BF008312031321088316D6
:100D18000313BE0083120313200883160313BD00B8
:100D28000130C802480A031D9A2E9B2EB32DAD2E02
:100D38003030AB00410884002B0883138000013059
:100D4800AB002B08C107FF30C6070318C70AFF30DE
:100D5800C70746084704031DB22EB32E9C2EDC2F6E
:100D68003408840083130008AB00840A0008AC0030
:100D78002B08BD002C08BE000030BE1BFF30BF0092
:100D8800C0000230AB002B08B407C01FCC2ECD2EFC
:100D9800DC2E0330B5040030B604BD09BE09BF0916
:100DA800C009BD0A0319BE0A0319BF0A0319C00AFC
:100DB80046084704031DE12EE22EF02E40083F04AA
:100DC8003E043D04031DE92EEA2EF02E0130C6072D
:100DD8000318C70A0030C707C801C80A4808AB008B
:100DE80001300310AB0DFF3E031DF52E03102B0D34
:100DF800693E84000A128A150A200A128A11AC0078
:100E08000A128A150A200A128A11AD000A128A15D6
:100E18000A200A128A11AE000A128A150A200A123A
:100E28008A11AF002F084002031D242F2E083F020D
:100E3800031D242F2D083E02031D242F2C083D02DC
:100E48000318272F282F292F332F0130AB002B0809
:100E5800C8070A304806031D322F332FF22E4708E1
:100E6800803A803C031D3A2F4608480203183D2F5C
:100E78003E2F3F2F572F831603134708803AAB00A6
:100E880080302B02031D4A2F4808460203184D2FB5
:100E98004E2F572F831603134808AB00AC012B08BD
:100EA800C6002C08C7000330831603133505AB00B2
:100EB80000303605AC002B082C040319642F652F6D
:100EC800CE2F2D30AB00410884002B0883138000FF
:100ED8000130AB002B08C107CE2F0030831203135B
:100EE800A3000030A2000030A1000A30A000831641
:100EF80003134608AB0001300310AB0DFF3E031D82
:100F0800802F03102B0D693E84000A128A150A20CF
:100F18000A128A11F0000A128A150A200A128A1186
:100F2800F1000A128A150A200A128A11F2000A121E
:100F38008A150A200A128A11F3004008F7003F08B0
:100F4800F6003E08F5003D08F4000A168A15DE236F
:100F58000A128A11730883120313A7007208A600E5
:100F68007108A5007008A4000A168A152F230A1212
:100F78008A11831203132008303E83160313AC0032
:100F88002C08C8004808AB00410884002B088313CC
:100F980080006C2FFF30C6070318C70AFF30C70749
:100FA800460A031DDB2F470A031DDB2FDC2F712F99
:100FB8000130A007FF30200784000A128A150A2092
:100FC8000A128A11AB002B08C8004808031DED2F30
:100FD800EE2F5A28410884008313800108008313E8
:100FE800CD308400E9300A168A1536210A128A1192
:100FF80083010A168A110E28FF1B0A2883137F18FB
:1010080083170008840A0319FF0A080008308A00B9
:101018000408840A820700340034003480343F34E2
:10102800003400342034413400340034C8344234AD
:10103800003400347A344434003440341C344634A8
:1010480000345034C33447340034243474344934BD
:101058008034963418344B342034BC34BE344C3489
:1010680028346B346E344E34F93402341534503429
:10107800EC347834AD346034CA34F23449347134E1
:101088000034003480343F34CD34CC34CC343D3457
:101098000A34D73423343C346F34123483343A342A
:1010A8001734B734D1343834AC34C53427343734F2
:1010B800BD343734863435349534BF34D63433347C
:1010C8007734CC342B3432345F3470348934303450
:1010D800FF34E634DB342E340834E5343C341E3433
:1010E80060344234A2340D34013400340034003406
:1010F8000A340034003400346434003400340034DA
:10110800E834033400340034103427340034003415
:10111800A034863401340034403442340F3400346F
:1011280080349634983400340034E134F53405348E
:101138000034CA349A343B3450344F345434313444
:1011480020342034203450344F3454343234203452
:101158002034543454344C34003425342E3432344E
:10116800663456342034203425342E3432346634F0
:10117800563420342534643400341A30F500F830FD
:10118800F400F40BC528F50BC52800003030F0003A
:101198000030F1000A168A158C210A128A150730C8
:1011A800F5007D30F400F40BD728F50BD728303044
:1011B800F0000030F1000A168A158C210A128A15EF
:1011C8002130F400F40BE6283030F0000030F10054
:1011D8000A168A158C210A128A152130F400F40B9C
:1011E800F3283830F0000030F1000A168A158C21F7
:1011F8000A128A151130F400F40B00290000083097
:10120800F0000030F1000A168A158C210A128A159E
:101218001130F400F40B0E2900000130F00000300A
:10122800F1000A168A158C210A128A150630F50073
:101238003030F400F40B1E29F50B1E29000006308F
:10124800F0000030F1000A168A158C210A128A155E
:101258001130F400F40B2E2900000C30F00000309F
:10126800F1000A168A158C210A128A151130F40029
:10127800F40B3C290000080083120313D000D01F90
:1012880046294729F42AD009D00A5008803A123E44
:10129800031C4F295029382A0A30F7000030F8007B
:1012A8005008F200F301F21BF3036430F000003041
:1012B800F1000A168A1585230A128A157108FA00A0
:1012C8007008F9000A168A1544240A128A15770844
:1012D80083120313C20001300310C20DFF3E031D29
:1012E80070290310420D593E84000A128A150A20FB
:1012F8000A128A15C3000A128A150A200A128A15C8
:10130800C4000A128A150A200A128A15C5000A1290
:101318008A150A200A128A15C6004608A700450839
:10132800A6004408A5004308A4006430F700003074
:10133800F8005008F900FA01F91BFA030A168A1591
:1013480044240A128A15770883120313C700013050
:101358000310C70DFF3E031DAC290310470D7D3E4A
:1013680084000A128A150A200A128A15C8000A126D
:101378008A150A200A128A15C9000A128A150A2033
:101388000A128A15CA000A128A150A200A128A1530
:10139800CB004B08AB004A08AA004908A900480836
:1013A800A8000A128A159F240A128A1583120313A9
:1013B8002708CF002608CE002508CD002408CC0039
:1013C8000A30F0000030F1005008F200F301F21B7F
:1013D800F3030A168A1585230A128A1570088312E0
:1013E8000313C20001300310C20DFF3E031DF7298D
:1013F8000310420D353E84000A128A150A200A128B
:101408008A15C3000A128A150A200A128A15C4000E
:101418000A128A150A200A128A15C5000A128A15A4
:101428000A200A128A15C6004608A7004508A60021
:101438004408A5004308A4004F08AB004E08AA00C2
:101448004D08A9004C08A8000A128A159F240A1200
:101458008A15831203132708C1002608C00025082F
:10146800BF002408BE009E2C5008803A753E031C1D
:101478003E2A3F2AC72A0A30F0000030F1005008FF
:10148800F200F301F21BF3030A168A1585230A12E8
:101498008A15700883120313C20001300310C20DAD
:1014A800FF3E031D522A0310420D353E84000A12E6
:1014B8008A150A200A128A15C3000A128A150A20F8
:1014C8000A128A15C4000A128A150A200A128A15F5
:1014D800C5000A128A150A200A128A15C60046088B
:1014E800A7004508A6004408A5004308A4000A3040
:1014F800F7000030F8005008F900FA01F91BFA0368
:101508000A168A1544240A128A15770883120313C7
:10151800C70001300310C70DFF3E031D8E2A0310BC
:10152800470D593E84000A128A150A200A128A15A4
:10153800C8000A128A150A200A128A15C9000A1256
:101548008A150A200A128A15CA000A128A150A2060
:101558000A128A15CB004B08AB004A08AA004908B2
:10156800A9004808A8000A128A159F240A128A1599
:10157800831203132708C1002608C0002508BF00EE
:101588002408BE009E2C5008C20001300310C20D72
:10159800FF3E031DCA2A0310420D353E84000A127D
:1015A8008A150A200A128A15C3000A128A150A2007
:1015B8000A128A15C4000A128A150A200A128A1504
:1015C800C5000A128A150A200A128A15C60046089A
:1015D800C1004508C0004408BF004308BE009E2C57
:1015E8005008803A123E031CFA2AFB2AE32B0A30E1
:1015F800F7000030F8005008F200F301F21BF30383
:101608006430F0000030F1000A168A1585230A12AA
:101618008A157108FA007008F9000A168A15442418
:101628000A128A15770883120313C20001300310C7
:10163800C20DFF3E031D1B2B0310420D253E8400E7
:101648000A128A150A200A128A15C3000A128A1574
:101658000A200A128A15C4000A128A150A200A12D8
:101668008A15C5000A128A150A200A128A15C600A8
:101678004608A7004508A6004408A5004308A4009A
:101688006430F7000030F8005008F900FA01F91B3F
:10169800FA030A168A1544240A128A15770883124F
:1016A8000313C70001300310C70DFF3E031D572B5E
:1016B8000310470D493E84000A128A150A200A12AF
:1016C8008A15C8000A128A150A200A128A15C90042
:1016D8000A128A150A200A128A15CA000A128A15DD
:1016E8000A200A128A15CB004B08AB004A08AA0048
:1016F8004908A9004808A8000A128A159F240A1256
:101708008A15831203132708CF002608CE00250860
:10171800CD002408CC000A30F0000030F100500859
:10172800F200F301F21BF3030A168A1585230A1245
:101738008A15700883120313C20001300310C20D0A
:10174800FF3E031DA22B0310420D013E84000A1226
:101758008A150A200A128A15C3000A128A150A2055
:101768000A128A15C4000A128A150A200A128A1552
:10177800C5000A128A150A200A128A15C6004608E8
:10178800A7004508A6004408A5004308A4004F0880
:10179800AB004E08AA004D08A9004C08A8000A1280
:1017A8008A159F240A128A15831203132708C10079
:1017B8002608C0002508BF002408BE009E2C50083B
:1017C800803A753E031CE92BEA2B722C0A30F00094
:1017D8000030F1005008F200F301F21BF3030A167F
:1017E8008A1585230A128A15700883120313C2000A
:1017F80001300310C20DFF3E031DFD2B0310420DE7
:10180800013E84000A128A150A200A128A15C300AA
:101818000A128A150A200A128A15C4000A128A15A1
:101828000A200A128A15C5000A128A150A200A1205
:101838008A15C6004608A7004508A6004408A50062
:101848004308A4000A30F7000030F8005008F900F7
:10185800FA01F91BFA030A168A1544240A128A1592
:10186800770883120313C70001300310C70DFF3E2A
:10187800031D392C0310470D253E84000A128A15D2
:101888000A200A128A15C8000A128A150A200A12A2
:101898008A15C9000A128A150A200A128A15CA006E
:1018A8000A128A150A200A128A15CB004B08AB00C7
:1018B8004A08AA004908A9004808A8000A128A1577
:1018C8009F240A128A15831203132708C1002608C9
:1018D800C0002508BF002408BE009E2C5008C20086
:1018E80001300310C20DFF3E031D752C0310420D7D
:1018F800013E84000A128A150A200A128A15C300BA
:101908000A128A150A200A128A15C4000A128A15B0
:101918000A200A128A15C5000A128A150A200A1214
:101928008A15C6004608C1004508C0004408BF0023
:101938004308BE0008008312031327088039AC004F
:101948002C08B1002708AC002C07AD002D08B70003
:10195800A61FAF2CB02CB12C371437080319B52C9F
:10196800B62CC52C370A031DBA2CBB2CC32C00304F
:10197800A7000030A6000030A5000030A400A6177C
:10198800CD2C0030A7000030A6000030A5000030A4
:10199800A4002B088039AC002C08B1062B08AC0039
:1019A8002C07AD002D08B600AA1FDB2CDC2CDD2C83
:1019B800361436080319E12CE22CF12C360A031DE3
:1019C800E62CE72CEF2C0030AB000030AA000030EA
:1019D800A9000030A800AA17F92C0030AB0000308D
:1019E800AA000030A9000030A80036080319FD2C11
:1019F800FE2C032D3708031D022D032D0C2D00305E
:101A0800A7000030A6000030A5000030A400FF2F7A
:101A18002408AC002C08F0002A080A168A151F2290
:101A28000A128A15710883120313BD007008BC00DE
:101A38003C08AC00AD01AE01AF012F08B5002E087F
:101A4800B4002D08B3002C08B2003D08AC00AD016D
:101A5800AE01AF012F08BB002E08BA002D08B9004F
:101A68002C08B8002508AC002C08F00029080A1634
:101A78008A151F220A128A15710883120313BD00E2
:101A88007008BC003C08AC00AD01AE01AF012C08E9
:101A9800B2072D0803110318013E0319542DB3078B
:101AA8002E0803110318013E03195B2DB4072F08F4
:101AB80003110318013E0319622DB5073D08AC0058
:101AC800AD01AE01AF012C08B8072D0803110318AA
:101AD800013E0319702DB9072E0803110318013EA2
:101AE8000319772DBA072F0803110318013E0319AC
:101AF8007E2DBB072608AC002C08F00028080A1623
:101B08008A151F220A128A15710883120313BD0051
:101B18007008BC003C08AC00AD01AE01AF012C0858
:101B2800B2072D0803110318013E03199C2DB307B2
:101B38002E0803110318013E0319A32DB4072F081B
:101B480003110318013E0319AA2DB5073D08AC007F
:101B5800AD01AE01AF012C08B8072D080311031819
:101B6800013E0319B82DB9072E0803110318013EC9
:101B78000319BF2DBA072F0803110318013E0319D3
:101B8800C62DBB070830AC000310B20DB30DB40D61
:101B9800B50DAC0BC82D2508AC002C08F0002808A2
:101BA8000A168A151F220A128A157108831203134E
:101BB800BD007008BC003C08AC003D08AD00AE019B
:101BC800AF012C08B2072D0803110318013E0319B1
:101BD800EE2DB3072E0803110318013E0319F52D46
:101BE800B4072F0803110318013E0319FC2DB5078C
:101BF8002408AC002C08F00029080A168A151F22B0
:101C08000A128A15710883120313BD007008BC00FC
:101C18003C08AC003D08AD00AE01AF012C08B2078E
:101C28002D0803110318013E03191B2EB3072E08B4
:101C380003110318013E0319222EB4072F080311BC
:101C48000318013E0319292EB5070830AC0003100C
:101C5800B20DB30DB40DB50DAC0B2B2E2408AC0092
:101C68002C08F00028080A168A151F220A128A155D
:101C7800710883120313BD007008BC003C08AC0057
:101C88003D08AD00AE01AF012C08B2072D080311C5
:101C98000318013E0319512EB3072E080311031828
:101CA800013E0319582EB4072F0803110318013EEB
:101CB80003195F2EB5072508AC002C08F0002A0888
:101CC8000A168A151F220A128A157108831203132D
:101CD800BD007008BC003C08AC003D08AD00AE017A
:101CE800AF012C08B8072D0803110318013E03198A
:101CF8007E2EB9072E0803110318013E0319852EFD
:101D0800BA072F0803110318013E03198C2EBB07CD
:101D18002608AC002C08F00029080A168A151F228C
:101D28000A128A15710883120313BD007008BC00DB
:101D38003C08AC003D08AD00AE01AF012C08B80767
:101D48002D0803110318013E0319AB2EB9072E08FD
:101D580003110318013E0319B22EBA072F08031105
:101D68000318013E0319B92EBB072608AC002C083E
:101D7800F0002A080A168A151F220A128A15710805
:101D880083120313BD007008BC003C08AC003D087A
:101D9800AD00AE01AF0108300310AC0DAD0DAE0DB6
:101DA800AF0DFF3E031DD02E2C08B8072D080311D8
:101DB8000318013E0319E12EB9072E080311031871
:101DC800013E0319E82EBA072F0803110318013E34
:101DD8000319EF2EBB073208AC003308AD003408F6
:101DE800AE003508AF0018300310AF0CAE0CAD0CC8
:101DF800AC0CFF3E031DF82E2C08B8072D08031164
:101E08000318013E0319092FB9072E0803110318F7
:101E1800013E0319102FBA072F0803110318013EBA
:101E28000319172FBB070830AC000310B20DB30D10
:101E3800B40DB50DAC0B192F37083607AC00AD0142
:101E4800AD0D2C08823EBC002D080318013EFF3E54
:101E5800BD004B2F0130AC000310B80DB90DBA0D01
:101E6800BB0DAC0B302FB51F3A2F3B2F3C2F38142E
:101E78000130AC000310B20DB30DB40DB50DAC0BB1
:101E88003E2FFF30BC070318BD0AFF30BD07BA1F3D
:101E98004E2F4F2F2E2FB601B51F532F542F702FB3
:101EA800FF303205AC00FF303305AD00FF3034059C
:101EB800AE007F303505AF002F082E042D042C040A
:101EC8000319672F682F6B2FB601B60A702F381CBD
:101ED8006E2F6F2F702F682F36080319742F752FE8
:101EE800A62F0130B807003003180130B9070030B9
:101EF80003180130BA07003003180130BB073B1C38
:101F0800862F872FA62F3808AC003908AD003A086D
:101F1800AE003B08AF000130B0002F0DAF0CAE0C87
:101F2800AD0CAC0CB00B912F2F08BB002E08BA00DB
:101F38002D08B9002C08B8000130BC070318BD0AE9
:101F48000030BD073D08803AFF0080307F02031D46
:101F5800AF2FFF303C02031CB22FB32FBE2F7F30B0
:101F680083120313BB008030BA000030B900003080
:101F7800B800F32F831203133D08803AFF00803026
:101F88007F02031DC92F01303C020318CC2FCD2F2F
:101F9800D92F003083120313BB000030BA00003081
:101FA800B9000030B800B101F32F831203133C08C5
:101FB800AC002C08B700FF30B805FF30B9057F30FA
:101FC800BA050030BB05371CEA2FEB2FEC2FBA17E8
:101FD8003708AC0003102C0CAD002D08BB003108ED
:101FE800AC002C08BB043B08A7003A08A600390837
:081FF800A5003808A400080050
:10200600730872047104700403190A280B280D283A
:102016008030F30608000A168A15F9210A168A1175
:1020260083160313D8010A168A155F210A168A1128
:102036000A128A15C1200A168A110A168A157221F1
:102046000A168A110130F4000030F5000130F6005E
:102056000030F7000A168A1546220A168A119130B0
:10206600F2008030F3000A168A15A9220A168A1190
:10207600831603138C16831203138C1283129F1775
:102086001F139F121F129F111F110C139F14433011
:10209600C1007F30C0000030BF000030BE004030BD
:1020A600A700A030A6000030A5000030A4001E083E
:1020B60083160313C900CA01CB01CC014C08F300F7
:1020C6004B08F2004A08F1004908F00001300A16F0
:1020D6008A15CB250A168A11730883120313AB00DF
:1020E6007208AA007108A9007008A8000A128A15C9
:1020F6009F240A168A11831203132708C50026088F
:10210600C4002508C3002408C2000A168A119021BB
:102116000A168A1183120313410883160313D40087
:1021260083120313400883160313D3008312031389
:102136003F0883160313D200831203133E08831647
:102146000313D100831203131E0883160313C90059
:10215600CA014908D5004A08D600C73083160313BA
:10216600C900C90BB428831203139F121F129F11B3
:102176001F150C139F144330C1007F30C000003080
:10218600BF000030BE004030A700A030A6000030DF
:10219600A5000030A4001E0883160313C900CA0157
:1021A600CB01CC014C08F3004B08F2004A08F100C1
:1021B6004908F00001300A168A15CB250A168A113D
:1021C600730883120313AB007208AA007108A900F2
:1021D6007008A8000A128A159F240A168A1183120B
:1021E60003132708C5002608C4002508C3002408D1
:1021F600C2000A168A1190210A168A118312031345
:10220600410883160313D000831203134008831674
:102216000313CF00831203133F0883160313CE0064
:10222600831203133E0883160313CD00C7308316AB
:102236000313C900C90B1D29A23083160313C90055
:102246004908A0005408A4005308A3005208A2009D
:102256005108A1005008A8004F08A7004E08A60084
:102266004D08A5005808CA00CB014A08A9004B082A
:10227600AA00D9300A128A1152200A168A1102308F
:10228600F4000030F5000130F6000030F7000A16C1
:102296008A1546220A168A11D930F2000030F30058
:1022A6000A168A15A9220A168A11C730831603133D
:1022B600C900C90B5C29831203131E0899000C1E62
:1022C60065296629622983160313550883120313A9
:1022D60099000C1E6F2970296C291A08831603139E
:1022E600C9004908D7002B305706031D7B297C29D6
:1022F60080290130C9004908D8072D3083120313FD
:102306001A06031D872988294128013083160313DD
:10231600D80241280A128A1100288312031345089D
:102326008039C6004608CF004508C6004607C700E4
:102336004708D600C41FA029A129A2295614560869
:102346000319A629A729B729560A031DAB29AC29C3
:10235600B4290030C5000030C4000030C30000308E
:10236600C200C417C501BF290030C5000030C40033
:102376000030C3000030C20041088039C60046085C
:10238600CF064108C6004607C7004708D700C01F4A
:10239600CD29CE29CF29571457080319D329D42973
:1023A600E429570A031DD829D929E1290030C1009B
:1023B6000030C0000030BF000030BE00C017C101B1
:1023C600EC290030C1000030C0000030BF000030F2
:1023D600BE00410840043F043E04031DF329F429CE
:1023E6000D2A0030C5000030C4000030C3000030A4
:1023F600C2008030C4047F30C5044F08C6004608BA
:10240600C5044508C1004408C0004308BF0042088F
:10241600BE006C2B5608031D112A122A1B2A0030F7
:10242600C1000030C0000030BF000030BE006C2B81
:102436005608C600C7014708C90057084602C80023
:10244600031CC90348087F3ED00049080318013E13
:10245600003ED1004508CE004408CD004308CC001C
:102466004208CB000030C5000030C4000030C30075
:102476000030C2000030D5000030D4000030D30058
:102486000030D200D701912A570803194B2A4C2A4B
:102496006C2A0130C6000310CB0DCC0DCD0DCE0D30
:1024A600C60B4E2A0130C6000310C20DC30DC40D63
:1024B600C50DC60B572AD51F612A622A632A421404
:1024C6000130C6000310D20DD30DD40DD50DC60BA9
:1024D600652A41084E02031D7A2A40084D02031D53
:1024E6007A2A3F084C02031D7A2A3E084B02031C37
:1024F6007D2A7E2A8D2A55173E08CB023F08031CEB
:102506003F0FCC024008031C400FCD024108031CBC
:10251600410FCE020130C6004608D7071A305702CF
:10252600031C962A972A472A4E084D044C044B044E
:1025360003199E2A9F2ABE2A5214BE2A0130C600BB
:102546000310C20DC30DC40DC50DC60BA32AD51F9E
:10255600AD2AAE2AAF2A42140130C6000310D20DAE
:10256600D30DD40DD50DC60BB12AFF30D0070318F5
:10257600D10AFF30D107C41FC12AC22AA12AD70116
:10258600D51FC62AC72AE32AFF305205C600FF30E8
:102596005305C700FF305405C8007F305505C900F4
:1025A60049084804470446040319DA2ADB2ADE2AC6
:1025B600D701D70AE32A421CE12AE22AE32ADB2AC8
:1025C60057080319E72AE82A192B0130C2070030F9
:1025D60003180130C307003003180130C407003068
:1025E60003180130C507451CF92AFA2A192B420897
:1025F600C6004308C7004408C8004508C9000130A2
:10260600CA00490DC90CC80CC70CC60CCA0B042B52
:102616004908C5004808C4004708C3004608C20068
:102626000130D0070318D10A0030D1075108803A8B
:10263600FF0080307F02031D222BFF305002031C57
:10264600252B262B342BFF3083120313D0000030AA
:10265600D1000030C5000030C4000030C300003097
:10266600C200831203135108803AFF0080307F02B4
:10267600031D3F2B013050020318422B432B502BD6
:1026860083120313D001D1010030C5000030C4000D
:102696000030C3000030C200CF018312031350087C
:1026A600C6004608D600561C592B5A2B5C2BC4175D
:1026B600602B7F30C6004608C4055608C6000310C6
:1026C600460CC7004708C5004F08C6004608C504A3
:1026D600042A080083120313D1006E305102031C32
:1026E600752B762B832C3F30A7000030A6000030D8
:1026F600A5000030A4006430F6000030F700510851
:10270600C200C3014208F8004308F9000A168A15F8
:10271600EB220A168A11760883120313C4000130CD
:102726000310C40DFF3E031D932B0310440D7D3E85
:1027360084000A128A150A200A168A11C5000A128E
:102746008A150A200A168A11C6000A128A150A2054
:102756000A168A11C7000A128A150A200A168A1151
:10276600C8004808AB004708AA004608A900450863
:10277600A8000A128A159F240A168A1183120313C7
:102786002708D0002608CF002508CE002408CD0053
:102796000A30F6000030F7005108C200C3014208B3
:1027A600F2004308F3006430F0000030F1000A162E
:1027B6008A156F220A168A117108F9007008F80046
:1027C6000A168A15EB220A168A1176088312031353
:1027D600C40001300310C40DFF3E031DED2B031092
:1027E600440D593E84000A128A150A200A168A11D7
:1027F600C5000A128A150A200A168A11C6000A128C
:102806008A150A200A168A11C7000A128A150A2092
:102816000A168A11C8004808A7004708A6004608F5
:10282600A5004508A4005008AB004F08AA004E08B2
:10283600A9004D08A8000A128A159F240A168A11B3
:10284600831203132708CC002608CB002508CA00EC
:102856002408C9000A30F0000030F1005108C20017
:10286600C3014208F2004308F3000A168A156F22D4
:102876000A168A11700883120313C400013003106C
:10288600C40DFF3E031D422C0310440D353E84004B
:102896000A128A150A200A168A11C5000A128A1512
:1028A6000A200A168A11C6000A128A150A200A1672
:1028B6008A11C7000A128A150A200A168A11C80048
:1028C6004808A7004708A6004608A5004508A40032
:1028D6004C08AB004B08AA004A08A9004908A80002
:1028E6000A128A159F240A168A11831203132708CF
:1028F600C1002608C0002508BF002408BE00772DA9
:102906000B305102031C882C892C342D3F30A70034
:102916000030A6000030A5000030A4000A30F60002
:102926000030F7005108C200C3014208F80043080E
:10293600F9000A168A15EB220A168A1176088312FE
:102946000313C40001300310C40DFF3E031DA62C63
:102956000310440D593E84000A128A150A200A16ED
:102966008A11C5000A128A150A200A168A11C6009B
:102976000A128A150A200A168A11C7000A128A152F
:102986000A200A168A11C8004808AB004708AA00A0
:102996004608A9004508A8000A128A159F240A16A7
:1029A6008A11831203132708D0002608CF002508B2
:1029B600CE002408CD000A30F0000030F1005108A6
:1029C600C200C3014208F2004308F3000A168A1542
:1029D6006F220A168A11700883120313C40001308D
:1029E6000310C40DFF3E031DF32C0310440D353EAA
:1029F60084000A128A150A200A168A11C5000A12CC
:102A06008A150A200A168A11C6000A128A150A2091
:102A16000A168A11C7000A128A150A200A168A118E
:102A2600C8004808A7004708A6004608A5004508AC
:102A3600A4005008AB004F08AA004E08A9004D0894
:102A4600A8000A128A159F240A168A1183120313F4
:102A56002708C1002608C0002508BF002408BE00BC
:102A6600772D3F30A7000030A6000030A5000030CB
:102A7600A4005108C20001300310C20DFF3E031D21
:102A86003F2D0310420D353E84000A128A150A2096
:102A96000A168A11C3000A128A150A200A168A1112
:102AA600C4000A128A150A200A168A11C5000A12DB
:102AB6008A150A200A168A11C6004608AB00450880
:102AC600AA004408A9004308A8000A128A159F24F0
:102AD6000A168A11831203132708C1002608C000AC
:102AE6002508BF002408BE000800831203135508FA
:102AF6008039DA005A08E2005508DA005A07DB0086
:102B06005B08E400D41F882D892D8A2D641464087F
:102B160003198E2D8F2D9F2D640A031D932D942D41
:102B26009C2D0030D5000030D4000030D30000309A
:102B3600D200D417D501A72D0030D5000030D4001F
:102B46000030D3000030D20059088039DA005A0824
:102B5600E300630862060319B12DB22DB32D621787
:102B66005908DA005A07DB005B08E300D81FBC2DC2
:102B7600BD2DBE2D631463080319C22DC32DD32D9D
:102B8600630A031DC72DC82DD02D0030D900003093
:102B9600D8000030D7000030D600D817D901DB2D79
:102BA6000030D9000030D8000030D7000030D60001
:102BB600640863020318E02DE12D252E621FE42D23
:102BC600E52DE92D8030DA005A08E2066408DA00BD
:102BD6005A08E5006308DA005A08E4006508DA00D6
:102BE6005A08E3005208DA005A08E5005608DA00E7
:102BF6005A08D2006508DA005A08D6005308DA00E7
:102C06005A08E5005708DA005A08D3006508DA00C2
:102C16005A08D7005408DA005A08E5005808DA00BE
:102C26005A08D4006508DA005A08D8005508DA00B0
:102C36005A08E5005908DA005A08D5006508DA008E
:102C46005A08D900E5016308DA00DB015B08DD00FC
:102C560064085A02DC00031CDD035D08803AFF00AD
:102C660080307F02031D392E1A305C02031C3C2E75
:102C76003D2E7A2E8312031355085404530452042E
:102C8600031D462E482E0130492E0030DA005A0820
:102C9600E5000030D5000030D4000030D30000300D
:102CA600D2006308DA005A08E400822E651C5C2E06
:102CB6005D2E662E6508DA0003105A0C0138DB001B
:102CC6005B08E500682E0310E50C521C6B2E6C2E7B
:102CD6006D2EE5170130DA00550DD50CD40CD30C4A
:102CE600D20CDA0B6F2E0130DA005A08E407831291
:102CF600031363086402031C812E822E592E621B65
:102D0600852E862ED12E6408031D8A2E8B2E942E98
:102D16000030D5000030D4000030D3000030D2009F
:102D2600FF2F5608D207570803110318013E03194F
:102D36009D2ED307580803110318013E0319A42E2C
:102D4600D407590803110318013E0319AB2ED50702
:102D5600551CAE2EAF2E852F651CB22EB32EBC2E63
:102D66006508DA0003105A0C0138DB005B08E50041
:102D7600BE2E0310E50C521CC12EC22EC32EE51723
:102D86000130DA00550DD50CD40CD30CD20CDA0B6D
:102D9600C52E0130DA005A08E407852F5508803A17
:102DA600FF005908803A7F02031DE32E580854029B
:102DB600031DE32E57085302031DE32E5608520245
:102DC6000318E62EE72E3F2FFF30DA00FF30DB0038
:102DD600FF30DC00FF30DD005608DE005708DF005C
:102DE6005808E0005908E1005208DE025308031CA7
:102DF600530FFE2EFF2EDF025408031C540F042F20
:102E0600052FE0025508031C550F0A2F0B2FE10270
:102E16005E08DA075F0803185F0F122F132FDB0710
:102E260060080318600F182F192FDC0761080318B4
:102E3600610ADD075D08D5005C08D4005B08D30095
:102E46005A08D2008030DA005A08E206E509E50A97
:102E56006508031D2F2F302F4D2F0130D20700306C
:102E660003180130D307003003180130D4070030AF
:102E760003180130D5074D2F5608D2025708031CF8
:102E8600570FD3025808031C580FD4025908031CC5
:102E9600590FD5025508540453045204031D542FE8
:102EA600552F812F6508031D592F5A2F812F00306A
:102EB600D5000030D4000030D3000030D200FF2F00
:102EC6000130DA000310D20DD30DD40DD50DDA0B77
:102ED600652FE51F6F2F702F712F5214651C742FED
:102EE600752F782F0314E50D7A2F0310E50D64086E
:102EF60003197E2F7F2F812F0130E402D41F842FE8
:102F0600852F632FE301E51F892F8A2F982F6508E8
:102F16007F3903198F2F902F932FE301E30A982F00
:102F2600521C962F972F982F902F630803199C2FCA
:102F36009D2FD12F0130D207003003180130D3075F
:102F4600003003180130D407003003180130D507CC
:102F5600551CAE2FAF2FD12F5208DA005308DB00D5
:102F66005408DC005508DD000130DE005D0DDD0C87
:102F7600DC0CDB0CDA0CDE0BB92F5D08D5005C0827
:102F8600D4005B08D3005A08D200640A0319CC2F78
:102F9600CD2FD12F0130DA005A08E407640A03194D
:102FA600D52FD62FDB2F6408031DDA2FDB2FE92F51
:102FB6000030D5000030D4000030D3000030D200FD
:102FC6006408031DE72FE82FE92FE201641CEC2FAC
:102FD600ED2FEF2FD417F32F7F30DA005A08D405E0
:102FE6006408DA0003105A0CDB005B08D500E21F08
:0A2FF600FD2FFE2FFF2FD517080056
:10326C0064008001840A040603190034040637291B
:10327C00F1008312031385157108880005160D30B3
:10328C00F000F00B47298312031305120800F1001C
:10329C00F0013A3071020318542955295D29303058
:1032AC007102031C5A295B295D29F001F00A700C8C
:1032BC000800831603131812181598168316031793
:1032CC00871567308316031399009A018312031331
:1032DC0098171813181608000030F000F1000A16A1
:1032EC008A158C210A168A150130F0000030F10085
:1032FC000A168A158C210A168A150730F5007D30BE
:10330C00F400F40B8729F50B8729080083120313AB
:10331C0085110730F3007D30F200F20B9329F30B8B
:10332C009329831203130516700888000730F300E5
:10333C007D30F200F20BA029F30BA02983120313AA
:10334C0005120730F3007D30F200F20BAB29F30BC2
:10335C00AB290800803083120313E9066D08D500F1
:10336C006C08D4006B08D3006A08D2006908D90035
:10337C006808D8006708D7006608D6000A168A11B4
:10338C0078250A168A15831203135508E900540888
:10339C00E8005308E7005208E6000800F401F501C4
:1033AC00701CD929DA29E0297208F4070318F50AE8
:1033BC007308F50701300310F20DF30DFF3E031DEA
:1033CC00E12901300310F10CF00CFF3E031DE8293C
:1033DC0070087104031DF329F429D6297508F1002E
:1033EC007408F0000800831203138501860187011D
:1033FC008801033083160313850086018701880139
:10340C0003308316031788008901831603139F0169
:10341C000B17831203131F141A30F100F830F0004D
:10342C00F00B162AF10B162A0000831203139F14BB
:10343C000800F800F401F5017008F200F3017208BD
:10344C00F6007308F700781C2C2A2D2A332A7608EC
:10345C00F4070318F50A7708F50701300310F60D89
:10346C00F70DFF3E031D342A0310F80C7808031DDA
:10347C00402A412A292A7508F1007408F000080036
:10348C0074037504031D4B2A4C2A5E2A76087F3E72
:10349C00F80077080318013E003EF9007908F100A6
:1034AC007808F0000A168A158C210A168A156E2ADD
:1034BC00023074067504031D642A652A6E2A760888
:1034CC00BF3EF80077080318013E003EF900542A6D
:1034DC000800700871040319742A752AA42AF501CE
:1034EC00F50A832A01300310F00DF10DFF3E031D88
:1034FC00792A0130F4007408F507F11F862A872A0F
:10350C00782A71087302031D8D2A70087202031C3D
:10351C00902A912A972A7008F2027108031CF3036F
:10352C00F30201300310F10CF00CFF3E031D982A3E
:10353C000130F502031DA32AA42A872A7308F1007F
:10354C007208F0000800F701F801CE2A770872071C
:10355C00F5007308F4000318F40AF71FB62AF403F5
:10356C007408F600760883120313FF0075088400B4
:10357C000A128A1500200A168A150A168A153E2187
:10358C000A168A150130F7070318F80A0030F807F5
:10359C0077087207F5007308F4000318F40AF71F94
:1035AC00D82AF4037408F600760883120313FF007C
:1035BC00750884000A128A1500200A168A15003A2A
:1035CC00031DE92AEA2AAC2A0800FB01FC01760853
:1035DC0077040319F22AF32A2A2BFD01FD0A012B89
:1035EC0001300310F60DF70DFF3E031DF72A0130D5
:1035FC00FA007A08FD07F71F042B052BF62A013079
:10360C000310FB0DFC0DFF3E031D062B7708790202
:10361C00031D122B76087802031C152B162B1D2B61
:10362C007608F8027708031CF903F9027B140130C1
:10363C000310F70CF60CFF3E031D1E2B0130FD0290
:10364C00031D292B2A2B052B7C08F7007B08F60081
:10365C0008008312031323082204210420040319F5
:10366C00382B392B7C2BA901A90A492B0130A80036
:10367C000310A00DA10DA20DA30DA80B3E2B013024
:10368C00A8002808A907A31F4C2B4D2B3C2B230863
:10369C002702031D5B2B22082602031D5B2B21082E
:1036AC002502031D5B2B20082402031C5E2B5F2BC1
:1036BC006D2B2008A4022108031C210FA50222084F
:1036CC00031C220FA6022308031C230FA7020130A0
:1036DC000310A30CA20CA10CA00CFF3E031D6E2B1F
:1036EC000130A902031D7B2B7C2B4D2B2708A3003B
:1036FC002608A2002508A1002408A0000800F60155
:10370C00F31F892B8A2B912BF209F309F20A031967
:10371C00F30AF601F60AF11F942B952B9A2BF0095C
:10372C00F109F00A0319F10A7008710403199F2BAF
:10373C00A02BCF2BF501F50AAE2B01300310F00DA9
:10374C00F10DFF3E031DA42B0130F4007408F507A6
:10375C00F11FB12BB22BA32B71087302031DB82BD5
:10376C0070087202031CBB2BBC2BC22B7008F2021C
:10377C007108031CF303F30201300310F10CF00C7D
:10378C00FF3E031DC32B0130F502031DCE2BCF2BA7
:10379C00B22B76080319D32BD42BD92BF209F309AE
:1037AC00F20A0319F30A7308F1007208F00008001A
:1037BC000030FC000030FB000030FA000030F90053
:1037CC0073087204710470040319ED2BEE2B3B2C5F
:1037DC00FD01FD0AFE2B0130F8000310F00DF10D78
:1037EC00F20DF30DF80BF32B0130F8007808FD0700
:1037FC00F31F012C022CF12B0130F8000310F90DF2
:10380C00FA0DFB0DFC0DF80B042C73087702031D4D
:10381C00192C72087602031D192C71087502031DF0
:10382C00192C70087402031C1C2C1D2C2C2C7008D9
:10383C00F4027108031C710FF5027208031C720F5D
:10384C00F6027308031C730FF7027914013003108E
:10385C00F30CF20CF10CF00CFF3E031D2D2C01307F
:10386C00FD02031D3A2C3B2C022C7C08F3007B0838
:10387C00F2007A08F1007908F000080083120313B3
:10388C00A101F81F4A2C4B2C522CF709F809F70A06
:10389C000319F80AA101A10AFA1F552C562C5F2C0A
:1038AC00F909FA09F90A0319FA0A0130FB007B0835
:1038BC00A106A201A301770878040319662C672CD2
:1038CC009E2CA001A00A752C01300310F70DF80DE9
:1038DC00FF3E031D6B2C0130FB007B08A007F81F7B
:1038EC00782C792C6A2C01300310A20DA30DFF3E0D
:1038FC00031D7A2C78087A02031D862C770879022E
:10390C00031C892C8A2C912C7708F9027808031C4B
:10391C00FA03FA02221401300310F80CF70CFF3EE4
:10392C00031D922C0130A002031D9D2C9E2C792C82
:10393C0021080319A22CA32CA82CA209A309A20AC2
:10394C000319A30A2308F8002208F7000800031043
:10395C0083120313530D540DD5005508DB005B087F
:10396C00031DB92CBA2CC32C0030D4000030D3006A
:10397C000030D2000030D100282D5108D50052085B
:10398C00D6005308D7005408D8001F300310D80CA9
:10399C00D70CD60CD50CFF3E031DCC2C5508D900EA
:1039AC005908DA00D317FF30D105FF30D205FF30AC
:1039BC00D3050030D4059630DB02DB1FE62CE72C58
:1039CC00012D5B08803A973E0318ED2CEE2CEF2C62
:1039DC00BA2C01300310D40CD30CD20CD10CFF3EFA
:1039EC00031DF02C0130D5005508DB07031DFF2CFF
:1039FC00002DEF2C182D20305B02031C062D072DFB
:103A0C00132DBA2C0130D5000310D10DD20DD30DCE
:103A1C00D40DD50B0A2D0130DB025B08031D172DCD
:103A2C00182D082D5A0803191C2D1D2D282DD109D0
:103A3C00D209D309D409D10A0319D20A0319D30A1A
:103A4C000319D40A080000307005F8000030710525
:103A5C00F90080307205FA007F307305FB007B089B
:103A6C007A0479047804031D3C2D3D2D452D00303E
:103A7C00F3000030F2000030F1000030F0000030B4
:103A8C007405F80000307505F90080307605FA00F1
:103A9C007F307705FB007B087A0479047804031DDA
:103AAC00582D592D612D0030F7000030F6000030F4
:103ABC00F5000030F400F31F642D652D892D0030C6
:103ACC00F8000030F9000030FA008030FB0070087C
:103ADC00F8027108031C710F742D752DF902720810
:103AEC00031C720F7A2D7B2DFA027308031C730FC3
:103AFC00802D812DFB027B08F3007A08F2007908F7
:103B0C00F1007808F000F71F8C2D8D2DB12D0030B1
:103B1C00F8000030F9000030FA008030FB00740827
:103B2C00F8027508031C750F9C2D9D2DF902760863
:103B3C00031C760FA22DA32DFA027708031C770F16
:103B4C00A82DA92DFB027B08F7007A08F60079084E
:103B5C00F5007808F4008030F3068030F70677081B
:103B6C007302031DC32D76087202031DC32D750845
:103B7C007102031DC32D740870020318C62DC72DC6
:103B8C00C92D0310CA2D03140800F8007808031976
:103B9C00D02DD12DE52DF31FD42DD52DE52D70096C
:103BAC00FA007109FB007209FC007309FD00FA0AA6
:103BBC000319FB0A0319FC0A0319FD0AED2D7308FE
:103BCC00FD007208FC007108FB007008FA00730815
:103BDC00720471047004031DF42DF52DFE2D0030BC
:103BEC00F3000030F2000030F1000030F000842EC1
:103BFC009630F4007408F900102E0130F4007408AB
:103C0C00F90701300310FD0CFC0CFB0CFA0CFF3E09
:103C1C00031D082EFE307D05031D152E162E032EBA
:103C2C00322E0130F4007408F9070130FA07003025
:103C3C0003180130FB07003003180130FC0700307B
:103C4C0003180130FD0701300310FD0CFC0CFB0CBC
:103C5C00FA0CFF3E031D2A2EFF307D05031D372E67
:103C6C00382E172E442E0130F9020130F4000310C7
:103C7C00FA0DFB0DFC0DFD0DF40B3D2EFC1B472E20
:103C8C00482E4E2E0230790203184D2E4E2E392E10
:103C9C007918512E522E5A2EFF30FA05FF30FB05A3
:103CAC007F30FC05FF30FD050310F90C7908F4009A
:103CBC00F501F601F70118300310F40DF50DF60DB2
:103CCC00F70DFF3E031D622E7408FA047508FB0401
:103CDC007608FC047708FD0478080319762E772EF5
:103CEC007C2EF31F7A2E7B2E7C2EFD177D08F30085
:103CFC007C08F2007B08F1007A08F00008007008DC
:103D0C00F8007108F9007208FA000310790D7A0DA9
:103D1C00FB007B0883120313A5002508031D972EB7
:103D2C00982EA12E0030F3000030F2000030F1008C
:103D3C000030F000412F7408F8007508F90076087F
:103D4C00FA000310790D7A0DFB007B08A4002408FF
:103D5C00031DB12EB22EB32E982EF117FF30F005A5
:103D6C00FF30F1050030F205F517FF30F405FF3098
:103D7C00F5050030F6050030A3000030A20000303D
:103D8C00A1000030A0007F30A50298302407F80075
:103D9C007808A5021830F8007808A4000130F80063
:103DAC000310A00DA10DA20DA30DF80BD62E7608B5
:103DBC007202031DE72E75087102031DE72E7408AD
:103DCC007002031CEA2EEB2EF62E7408F002750816
:103DDC00031C750FF1027608031C760AF2022014FC
:103DEC0001300310F00DF10DF20DFF3E031DF72E07
:103DFC000130A402031D032F042FD42EA51F072F5F
:103E0C00082F222F2508803A973E03180E2F0F2FCC
:103E1C00102F982E01300310A30CA20CA10CA00C97
:103E2C00FF3E031D112F0130F8007808A507031D74
:103E3C00202F212F102F392F18302502031C272F4C
:103E4C00282F342F982E0130F8000310A00DA10D4F
:103E5C00A20DA30DF80B2B2F0130A5022508031D75
:103E6C00382F392F292F2308F3002208F2002108BC
:103E7C00F1002008F00008000310720D730DF8001B
:103E8C00780883120313A5002508031D4E2F4F2F0E
:103E9C00582F0030F3000030F2000030F1000030F9
:103EAC00F000FF2F0310760D770DF8007808A400B2
:103EBC002408031D622F632F642F4F2FF217FF303E
:103ECC00F005FF30F105FF30F2050030F305F61771
:103EDC00FF30F405FF30F505FF30F6050030F7052F
:103EEC000030A3000030A2000030A1000030A00080
:103EFC007F30A502A0302407F8007808A5022030F6
:103F0C00F8007808A4000130F8000310A00DA10DF2
:103F1C00A20DA30DF80B8B2F77087302031DA02F96
:103F2C0076087202031DA02F75087102031DA02FC5
:103F3C0074087002031CA32FA42FB32F7408F00273
:103F4C007508031C750FF1027608031C760FF2023C
:103F5C007708031C770FF30220140130F8000310CC
:103F6C00F00DF10DF20DF30DF80BB52F0130A4028D
:103F7C00031DC12FC22F892FA51FC52FC62FE02FC0
:103F8C002508803A9F3E0318CC2FCD2FCE2F4F2FD4
:103F9C0001300310A30CA20CA10CA00CFF3E031DBE
:103FAC00CF2F0130F8007808A507031DDE2FDF2F77
:103FBC00CE2FF72F20302502031CE52FE62FF22FF2
:103FCC004F2F0130F8000310A00DA10DA20DA30D71
:103FDC00F80BE92F0130A5022508031DF62FF72F4A
:103FEC00E72F2308F3002208F2002108F100200833
:043FFC00F0000800C9
:04400E00D5E0FFFFFB
:00000001FF
